{
  "contractName": "CrowdFunding",
  "abi": [
    {
      "constant": true,
      "inputs": [],
      "name": "creator",
      "outputs": [
        {
          "name": "",
          "type": "address"
        }
      ],
      "payable": false,
      "stateMutability": "view",
      "type": "function"
    },
    {
      "constant": true,
      "inputs": [],
      "name": "name",
      "outputs": [
        {
          "name": "",
          "type": "string"
        }
      ],
      "payable": false,
      "stateMutability": "view",
      "type": "function"
    },
    {
      "constant": true,
      "inputs": [],
      "name": "endTime",
      "outputs": [
        {
          "name": "",
          "type": "uint256"
        }
      ],
      "payable": false,
      "stateMutability": "view",
      "type": "function"
    },
    {
      "constant": true,
      "inputs": [],
      "name": "targetMoney",
      "outputs": [
        {
          "name": "",
          "type": "uint256"
        }
      ],
      "payable": false,
      "stateMutability": "view",
      "type": "function"
    },
    {
      "constant": true,
      "inputs": [],
      "name": "supportMoney",
      "outputs": [
        {
          "name": "",
          "type": "uint256"
        }
      ],
      "payable": false,
      "stateMutability": "view",
      "type": "function"
    },
    {
      "inputs": [
        {
          "name": "_name",
          "type": "string"
        },
        {
          "name": "_targetMoney",
          "type": "uint256"
        },
        {
          "name": "_supportMoney",
          "type": "uint256"
        },
        {
          "name": "duration",
          "type": "uint256"
        },
        {
          "name": "_creator",
          "type": "address"
        },
        {
          "name": "_i2f",
          "type": "address"
        }
      ],
      "payable": false,
      "stateMutability": "nonpayable",
      "type": "constructor"
    },
    {
      "constant": false,
      "inputs": [],
      "name": "support",
      "outputs": [],
      "payable": true,
      "stateMutability": "payable",
      "type": "function"
    },
    {
      "constant": false,
      "inputs": [],
      "name": "returnMoney",
      "outputs": [],
      "payable": false,
      "stateMutability": "nonpayable",
      "type": "function"
    },
    {
      "constant": false,
      "inputs": [
        {
          "name": "purpose",
          "type": "string"
        },
        {
          "name": "to",
          "type": "address"
        },
        {
          "name": "amount",
          "type": "uint256"
        }
      ],
      "name": "createRequest",
      "outputs": [],
      "payable": false,
      "stateMutability": "nonpayable",
      "type": "function"
    },
    {
      "constant": false,
      "inputs": [
        {
          "name": "requestId",
          "type": "uint256"
        }
      ],
      "name": "approveRequest",
      "outputs": [],
      "payable": false,
      "stateMutability": "nonpayable",
      "type": "function"
    },
    {
      "constant": false,
      "inputs": [
        {
          "name": "requestId",
          "type": "uint256"
        }
      ],
      "name": "finalizeRequest",
      "outputs": [],
      "payable": false,
      "stateMutability": "nonpayable",
      "type": "function"
    },
    {
      "constant": true,
      "inputs": [],
      "name": "getInvestors",
      "outputs": [
        {
          "name": "",
          "type": "address[]"
        }
      ],
      "payable": false,
      "stateMutability": "view",
      "type": "function"
    },
    {
      "constant": true,
      "inputs": [],
      "name": "getInvestorCount",
      "outputs": [
        {
          "name": "",
          "type": "uint256"
        }
      ],
      "payable": false,
      "stateMutability": "view",
      "type": "function"
    },
    {
      "constant": true,
      "inputs": [
        {
          "name": "requestId",
          "type": "uint256"
        }
      ],
      "name": "getRequest",
      "outputs": [
        {
          "name": "",
          "type": "string"
        },
        {
          "name": "",
          "type": "address"
        },
        {
          "name": "",
          "type": "uint256"
        },
        {
          "name": "",
          "type": "uint256"
        },
        {
          "name": "",
          "type": "uint256"
        },
        {
          "name": "",
          "type": "bool"
        }
      ],
      "payable": false,
      "stateMutability": "view",
      "type": "function"
    },
    {
      "constant": true,
      "inputs": [],
      "name": "getRequestCount",
      "outputs": [
        {
          "name": "",
          "type": "uint256"
        }
      ],
      "payable": false,
      "stateMutability": "view",
      "type": "function"
    },
    {
      "constant": true,
      "inputs": [],
      "name": "getTimeLeft",
      "outputs": [
        {
          "name": "",
          "type": "uint256"
        }
      ],
      "payable": false,
      "stateMutability": "view",
      "type": "function"
    },
    {
      "constant": true,
      "inputs": [],
      "name": "getBalance",
      "outputs": [
        {
          "name": "",
          "type": "uint256"
        }
      ],
      "payable": false,
      "stateMutability": "view",
      "type": "function"
    }
  ],
  "bytecode": "0x60806040523480156200001157600080fd5b50604051620014ad380380620014ad83398101806040528101908080518201929190602001805190602001909291908051906020019092919080519060200190929190805190602001909291908051906020019092919050505085600090805190602001906200008392919062000129565b50846001819055508360028190555082420160038190555081600460006101000a81548173ffffffffffffffffffffffffffffffffffffffff021916908373ffffffffffffffffffffffffffffffffffffffff16021790555080600960006101000a81548173ffffffffffffffffffffffffffffffffffffffff021916908373ffffffffffffffffffffffffffffffffffffffff160217905550505050505050620001d8565b828054600181600116156101000203166002900490600052602060002090601f016020900481019282601f106200016c57805160ff19168380011785556200019d565b828001600101855582156200019d579182015b828111156200019c5782518255916020019190600101906200017f565b5b509050620001ac9190620001b0565b5090565b620001d591905b80821115620001d1576000816000905550600101620001b7565b5090565b90565b6112c580620001e86000396000f3006080604052600436106100e6576000357c0100000000000000000000000000000000000000000000000000000000900463ffffffff16806302d05d3f146100eb578063034410061461014257806306fdde031461016f578063119f8747146101ff57806312065fe0146102095780631b16bb5c146102345780633197cbb6146102c75780633fad1834146102f25780638d7cdb911461031d5780639311931214610348578063960524e31461035f578063a5d5c5dc1461038a578063b2f5a54c146103b5578063c58343ef14610421578063c7e284b81461051a578063d7d1bbdb14610545575b600080fd5b3480156100f757600080fd5b50610100610572565b604051808273ffffffffffffffffffffffffffffffffffffffff1673ffffffffffffffffffffffffffffffffffffffff16815260200191505060405180910390f35b34801561014e57600080fd5b5061016d60048036038101908080359060200190929190505050610598565b005b34801561017b57600080fd5b5061018461070c565b6040518080602001828103825283818151815260200191508051906020019080838360005b838110156101c45780820151818401526020810190506101a9565b50505050905090810190601f1680156101f15780820380516001836020036101000a031916815260200191505b509250505060405180910390f35b6102076107aa565b005b34801561021557600080fd5b5061021e610a39565b6040518082815260200191505060405180910390f35b34801561024057600080fd5b506102c5600480360381019080803590602001908201803590602001908080601f0160208091040260200160405190810160405280939291908181526020018383808284378201915050505050509192919290803573ffffffffffffffffffffffffffffffffffffffff16906020019092919080359060200190929190505050610a58565b005b3480156102d357600080fd5b506102dc610bd5565b6040518082815260200191505060405180910390f35b3480156102fe57600080fd5b50610307610bdb565b6040518082815260200191505060405180910390f35b34801561032957600080fd5b50610332610be8565b6040518082815260200191505060405180910390f35b34801561035457600080fd5b5061035d610bee565b005b34801561036b57600080fd5b50610374610e3d565b6040518082815260200191505060405180910390f35b34801561039657600080fd5b5061039f610e4a565b6040518082815260200191505060405180910390f35b3480156103c157600080fd5b506103ca610e50565b6040518080602001828103825283818151815260200191508051906020019060200280838360005b8381101561040d5780820151818401526020810190506103f2565b505050509050019250505060405180910390f35b34801561042d57600080fd5b5061044c60048036038101908080359060200190929190505050610ede565b60405180806020018773ffffffffffffffffffffffffffffffffffffffff1673ffffffffffffffffffffffffffffffffffffffff16815260200186815260200185815260200184815260200183151515158152602001828103825288818151815260200191508051906020019080838360005b838110156104da5780820151818401526020810190506104bf565b50505050905090810190601f1680156105075780820380516001836020036101000a031916815260200191505b5097505050505050505060405180910390f35b34801561052657600080fd5b5061052f611059565b6040518082815260200191505060405180910390f35b34801561055157600080fd5b5061057060048036038101908080359060200190929190505050611079565b005b600460009054906101000a900473ffffffffffffffffffffffffffffffffffffffff1681565b6000600460009054906101000a900473ffffffffffffffffffffffffffffffffffffffff1673ffffffffffffffffffffffffffffffffffffffff163373ffffffffffffffffffffffffffffffffffffffff161415156105f657600080fd5b60088281548110151561060557fe5b906000526020600020906006020190506000600181111561062257fe5b8160040160009054906101000a900460ff16600181111561063f57fe5b14151561064b57600080fd5b600580549050600282600301540211151561066557600080fd5b60018160040160006101000a81548160ff0219169083600181111561068657fe5b0217905550600081600201541115610708578060010160009054906101000a900473ffffffffffffffffffffffffffffffffffffffff1673ffffffffffffffffffffffffffffffffffffffff166108fc82600201549081150290604051600060405180830381858888f19350505050158015610706573d6000803e3d6000fd5b505b5050565b60008054600181600116156101000203166002900480601f0160208091040260200160405190810160405280929190818152602001828054600181600116156101000203166002900480156107a25780601f10610777576101008083540402835291602001916107a2565b820191906000526020600020905b81548152906001019060200180831161078557829003601f168201915b505050505081565b600460009054906101000a900473ffffffffffffffffffffffffffffffffffffffff1673ffffffffffffffffffffffffffffffffffffffff163373ffffffffffffffffffffffffffffffffffffffff161415151561080757600080fd5b6002543414151561081757600080fd5b600660003373ffffffffffffffffffffffffffffffffffffffff1673ffffffffffffffffffffffffffffffffffffffff16815260200190815260200160002060009054906101000a900460ff1615151561087057600080fd5b60053390806001815401808255809150509060018203906000526020600020016000909192909190916101000a81548173ffffffffffffffffffffffffffffffffffffffff021916908373ffffffffffffffffffffffffffffffffffffffff160217905550506001600660003373ffffffffffffffffffffffffffffffffffffffff1673ffffffffffffffffffffffffffffffffffffffff16815260200190815260200160002060006101000a81548160ff021916908315150217905550600960009054906101000a900473ffffffffffffffffffffffffffffffffffffffff1673ffffffffffffffffffffffffffffffffffffffff1663b1c4907933306040518363ffffffff167c0100000000000000000000000000000000000000000000000000000000028152600401808373ffffffffffffffffffffffffffffffffffffffff1673ffffffffffffffffffffffffffffffffffffffff1681526020018273ffffffffffffffffffffffffffffffffffffffff1673ffffffffffffffffffffffffffffffffffffffff16815260200192505050600060405180830381600087803b158015610a1f57600080fd5b505af1158015610a33573d6000803e3d6000fd5b50505050565b60003073ffffffffffffffffffffffffffffffffffffffff1631905090565b600460009054906101000a900473ffffffffffffffffffffffffffffffffffffffff1673ffffffffffffffffffffffffffffffffffffffff163373ffffffffffffffffffffffffffffffffffffffff16141515610ab457600080fd5b600860a0604051908101604052808581526020018473ffffffffffffffffffffffffffffffffffffffff1681526020018381526020016000815260200160006001811115610afe57fe5b815250908060018154018082558091505090600182039060005260206000209060060201600090919290919091506000820151816000019080519060200190610b489291906111f4565b5060208201518160010160006101000a81548173ffffffffffffffffffffffffffffffffffffffff021916908373ffffffffffffffffffffffffffffffffffffffff160217905550604082015181600201556060820151816003015560808201518160040160006101000a81548160ff02191690836001811115610bc857fe5b0217905550505050505050565b60035481565b6000600880549050905090565b60015481565b6000600460009054906101000a900473ffffffffffffffffffffffffffffffffffffffff1673ffffffffffffffffffffffffffffffffffffffff163373ffffffffffffffffffffffffffffffffffffffff16141515610c4c57600080fd5b600580549050600254023073ffffffffffffffffffffffffffffffffffffffff163110151515610c7b57600080fd5b600090505b600580549050811015610e3a5760076000600583815481101515610ca057fe5b9060005260206000200160009054906101000a900473ffffffffffffffffffffffffffffffffffffffff1673ffffffffffffffffffffffffffffffffffffffff1673ffffffffffffffffffffffffffffffffffffffff16815260200190815260200160002060009054906101000a900460ff161515610d9c57600581815481101515610d2857fe5b9060005260206000200160009054906101000a900473ffffffffffffffffffffffffffffffffffffffff1673ffffffffffffffffffffffffffffffffffffffff166108fc6002549081150290604051600060405180830381858888f19350505050158015610d9a573d6000803e3d6000fd5b505b600160076000600584815481101515610db157fe5b9060005260206000200160009054906101000a900473ffffffffffffffffffffffffffffffffffffffff1673ffffffffffffffffffffffffffffffffffffffff1673ffffffffffffffffffffffffffffffffffffffff16815260200190815260200160002060006101000a81548160ff0219169083151502179055508080600101915050610c80565b50565b6000600580549050905090565b60025481565b60606005805480602002602001604051908101604052809291908181526020018280548015610ed457602002820191906000526020600020905b8160009054906101000a900473ffffffffffffffffffffffffffffffffffffffff1673ffffffffffffffffffffffffffffffffffffffff1681526020019060010190808311610e8a575b5050505050905090565b6060600080600080600080600888815481101515610ef857fe5b90600052602060002090600602019050806000018160010160009054906101000a900473ffffffffffffffffffffffffffffffffffffffff16826002015483600301548460040160009054906101000a900460ff166001811115610f5857fe5b8560050160003373ffffffffffffffffffffffffffffffffffffffff1673ffffffffffffffffffffffffffffffffffffffff16815260200190815260200160002060009054906101000a900460ff16858054600181600116156101000203166002900480601f01602080910402602001604051908101604052809291908181526020018280546001816001161561010002031660029004801561103c5780601f106110115761010080835404028352916020019161103c565b820191906000526020600020905b81548152906001019060200180831161101f57829003601f168201915b505050505095509650965096509650965096505091939550919395565b600042600354101561106e5760009050611076565b426003540390505b90565b6000600660003373ffffffffffffffffffffffffffffffffffffffff1673ffffffffffffffffffffffffffffffffffffffff16815260200190815260200160002060009054906101000a900460ff1615156110d357600080fd5b6008828154811015156110e257fe5b906000526020600020906006020190508060050160003373ffffffffffffffffffffffffffffffffffffffff1673ffffffffffffffffffffffffffffffffffffffff16815260200190815260200160002060009054906101000a900460ff1615151561114d57600080fd5b6000600181111561115a57fe5b8160040160009054906101000a900460ff16600181111561117757fe5b14151561118357600080fd5b6001816003016000828254019250508190555060018160050160003373ffffffffffffffffffffffffffffffffffffffff1673ffffffffffffffffffffffffffffffffffffffff16815260200190815260200160002060006101000a81548160ff0219169083151502179055505050565b828054600181600116156101000203166002900490600052602060002090601f016020900481019282601f1061123557805160ff1916838001178555611263565b82800160010185558215611263579182015b82811115611262578251825591602001919060010190611247565b5b5090506112709190611274565b5090565b61129691905b8082111561129257600081600090555060010161127a565b5090565b905600a165627a7a72305820b80cafadc3505210bb87915008885de934773648467e7709d65662f4e752e8e30029",
  "source": "pragma solidity ^0.4.0;\nimport \"./InvestorFunding.sol\";\n\ncontract CrowdFunding {\n    string public name;\n    uint public targetMoney;\n    uint public supportMoney;\n    uint public endTime;\n    address public creator;\n\n    address[] investors;\n    mapping(address=>bool) voted;\n    mapping(address=>bool) returned;\n\n    struct Request {\n        string purpose;\n        address to;\n        uint amount;\n        uint approveCount;\n        RequestStatus status;\n        mapping(address=>bool) approved;\n    }\n\n    enum RequestStatus {Voting,Complete}\n\n    Request[] requests;\n\n    InvestorFunding i2f;\n\n    //constructor(string _name,uint _targetMoney,uint _supportMoney,uint duration) {\n    constructor(string _name,uint _targetMoney,uint _supportMoney,uint duration,address _creator,InvestorFunding _i2f) {\n        name=_name;\n        targetMoney=_targetMoney;\n        supportMoney=_supportMoney;\n        endTime=now+duration;\n        //creator=msg.sender;\n        creator=_creator;\n        i2f=_i2f;\n    }\n\n    modifier onlyCreator() {\n        require(msg.sender==creator);\n        _;\n    }\n\n    function support() payable public {\n        require(msg.sender!=creator);\n        require(msg.value==supportMoney);\n        require(!voted[msg.sender]);\n        investors.push(msg.sender);\n        voted[msg.sender]=true;\n        i2f.join(msg.sender,address(this));\n    }\n\n    function returnMoney() public onlyCreator {\n        require(address(this).balance>=supportMoney*investors.length);\n        for(uint i=0;i<investors.length;i++) {\n            if(!returned[investors[i]]) investors[i].transfer(supportMoney);\n            returned[investors[i]]=true;\n        }\n    }\n\n    function createRequest(string purpose,address to,uint amount) public onlyCreator {\n        requests.push(Request({purpose:purpose,to:to,amount:amount,approveCount:0,status:RequestStatus.Voting}));\n    }\n\n    function approveRequest(uint requestId) public {\n        require(voted[msg.sender]);\n        Request storage request=requests[requestId];\n        require(!request.approved[msg.sender]);\n        require(request.status==RequestStatus.Voting);\n        request.approveCount+=1;\n        request.approved[msg.sender]=true;\n    }\n\n    function finalizeRequest(uint requestId) public onlyCreator {\n        Request storage request=requests[requestId];\n        require(request.status==RequestStatus.Voting);\n        require(request.approveCount*2>investors.length);\n        request.status=RequestStatus.Complete;\n        if(request.amount>0) request.to.transfer(request.amount);\n    }\n\n    function getInvestors() public view returns (address[]) {\n        return investors;\n    }\n\n    function getInvestorCount() public view returns (uint) {\n        return investors.length;\n    }\n\n    function getRequest(uint requestId) public view returns (string,address,uint,uint,uint,bool) {\n        Request request=requests[requestId];\n        return (request.purpose,request.to,request.amount,request.approveCount,uint(request.status),request.approved[msg.sender]);\n    }\n\n    function getRequestCount() public view returns (uint) {\n        return requests.length;\n    }\n\n    function getTimeLeft() public view returns (uint) {\n        if(endTime<now) return 0;\n        return endTime-now;\n    }\n\n    function getBalance() public view returns (uint) {\n        return address(this).balance;\n    }\n}\n",
  "sourcePath": "/Users/zmx/190208/contracts/CrowdFunding.sol",
  "compiler": {
    "name": "solc",
    "version": "0.4.24+commit.e67f0147.Emscripten.clang"
  },
  "schemaVersion": "2.0.1",
  "updatedAt": "2019-02-10T07:50:44.457Z"
}