{
  "contractName": "Funding",
  "abi": [
    {
      "inputs": [
        {
          "name": "_goal",
          "type": "uint256"
        },
        {
          "name": "duration",
          "type": "uint256"
        }
      ],
      "payable": false,
      "stateMutability": "nonpayable",
      "type": "constructor"
    },
    {
      "constant": false,
      "inputs": [],
      "name": "support",
      "outputs": [],
      "payable": true,
      "stateMutability": "payable",
      "type": "function"
    },
    {
      "constant": false,
      "inputs": [],
      "name": "finalize",
      "outputs": [],
      "payable": false,
      "stateMutability": "nonpayable",
      "type": "function"
    },
    {
      "constant": false,
      "inputs": [
        {
          "name": "_amount",
          "type": "uint256"
        },
        {
          "name": "_to",
          "type": "address"
        },
        {
          "name": "_intro",
          "type": "string"
        }
      ],
      "name": "makeRequest",
      "outputs": [],
      "payable": false,
      "stateMutability": "nonpayable",
      "type": "function"
    },
    {
      "constant": false,
      "inputs": [
        {
          "name": "id",
          "type": "uint256"
        }
      ],
      "name": "approveRequest",
      "outputs": [],
      "payable": false,
      "stateMutability": "nonpayable",
      "type": "function"
    },
    {
      "constant": false,
      "inputs": [
        {
          "name": "id",
          "type": "uint256"
        }
      ],
      "name": "finalizeRequest",
      "outputs": [],
      "payable": false,
      "stateMutability": "nonpayable",
      "type": "function"
    },
    {
      "constant": true,
      "inputs": [
        {
          "name": "id",
          "type": "uint256"
        }
      ],
      "name": "getRequest",
      "outputs": [
        {
          "name": "",
          "type": "uint256"
        },
        {
          "name": "",
          "type": "address"
        },
        {
          "name": "",
          "type": "uint256"
        },
        {
          "name": "",
          "type": "string"
        }
      ],
      "payable": false,
      "stateMutability": "view",
      "type": "function"
    },
    {
      "constant": true,
      "inputs": [],
      "name": "getBalance",
      "outputs": [
        {
          "name": "",
          "type": "uint256"
        }
      ],
      "payable": false,
      "stateMutability": "view",
      "type": "function"
    }
  ],
  "bytecode": "0x608060405234801561001057600080fd5b5060405160408061115983398101806040528101908080519060200190929190805190602001909291905050508160008190555080420160028190555033600360006101000a81548173ffffffffffffffffffffffffffffffffffffffff021916908373ffffffffffffffffffffffffffffffffffffffff1602179055506000600660006101000a81548160ff0219169083151502179055506000600660016101000a81548160ff0219169083151502179055505050611084806100d56000396000f300608060405260043610610083576000357c0100000000000000000000000000000000000000000000000000000000900463ffffffff1680630344100614610088578063119f8747146100b557806312065fe0146100bf5780634bb278f3146100ea578063bfb41ea714610101578063c58343ef14610194578063d7d1bbdb1461027b575b600080fd5b34801561009457600080fd5b506100b3600480360381019080803590602001909291905050506102a8565b005b6100bd610558565b005b3480156100cb57600080fd5b506100d46106d4565b6040518082815260200191505060405180910390f35b3480156100f657600080fd5b506100ff6106f3565b005b34801561010d57600080fd5b5061019260048036038101908080359060200190929190803573ffffffffffffffffffffffffffffffffffffffff169060200190929190803590602001908201803590602001908080601f016020809104026020016040519081016040528093929190818152602001838380828437820191505050505050919291929050505061093c565b005b3480156101a057600080fd5b506101bf60048036038101908080359060200190929190505050610ac2565b604051808581526020018473ffffffffffffffffffffffffffffffffffffffff1673ffffffffffffffffffffffffffffffffffffffff16815260200183815260200180602001828103825283818151815260200191508051906020019080838360005b8381101561023d578082015181840152602081019050610222565b50505050905090810190601f16801561026a5780820380516001836020036101000a031916815260200191505b509550505050505060405180910390f35b34801561028757600080fd5b506102a660048036038101908080359060200190929190505050610c4a565b005b6000600660019054906101000a900460ff1615156102c557600080fd5b600360009054906101000a900473ffffffffffffffffffffffffffffffffffffffff1673ffffffffffffffffffffffffffffffffffffffff163373ffffffffffffffffffffffffffffffffffffffff1614151561032157600080fd5b8161032a610f6b565b60078281548110151561033957fe5b906000526020600020906006020160a06040519081016040529081600082015481526020016001820160009054906101000a900473ffffffffffffffffffffffffffffffffffffffff1673ffffffffffffffffffffffffffffffffffffffff1673ffffffffffffffffffffffffffffffffffffffff168152602001600282018054600181600116156101000203166002900480601f01602080910402602001604051908101604052809291908181526020018280546001816001161561010002031660029004801561044c5780601f106104215761010080835404028352916020019161044c565b820191906000526020600020905b81548152906001019060200180831161042f57829003601f168201915b505050505081526020016003820160009054906101000a900460ff161515151581526020016004820154815250509050806060015115151561048d57600080fd5b60078481548110151561049c57fe5b9060005260206000209060060201925060048054905060028460040154021115156104c657600080fd5b8260010160009054906101000a900473ffffffffffffffffffffffffffffffffffffffff1673ffffffffffffffffffffffffffffffffffffffff166108fc84600001549081150290604051600060405180830381858888f19350505050158015610534573d6000803e3d6000fd5b5060018360030160006101000a81548160ff02191690831515021790555050505050565b600360009054906101000a900473ffffffffffffffffffffffffffffffffffffffff1673ffffffffffffffffffffffffffffffffffffffff163373ffffffffffffffffffffffffffffffffffffffff16141515156105b557600080fd5b60025442111515156105c657600080fd5b6000600560003373ffffffffffffffffffffffffffffffffffffffff1673ffffffffffffffffffffffffffffffffffffffff1681526020019081526020016000205414156106755760043390806001815401808255809150509060018203906000526020600020016000909192909190916101000a81548173ffffffffffffffffffffffffffffffffffffffff021916908373ffffffffffffffffffffffffffffffffffffffff160217905550505b34600560003373ffffffffffffffffffffffffffffffffffffffff1673ffffffffffffffffffffffffffffffffffffffff1681526020019081526020016000206000828254019250508190555034600160008282540192505081905550565b60003073ffffffffffffffffffffffffffffffffffffffff1631905090565b60006002544211151561070557600080fd5b600660009054906101000a900460ff1615151561072157600080fd5b600054600154101515610769576001600660006101000a81548160ff0219169083151502179055506001600660016101000a81548160ff021916908315150217905550610939565b600090505b6004805490508110156109025760006005600060048481548110151561079057fe5b9060005260206000200160009054906101000a900473ffffffffffffffffffffffffffffffffffffffff1673ffffffffffffffffffffffffffffffffffffffff1673ffffffffffffffffffffffffffffffffffffffff1681526020019081526020016000205411156108f55760048181548110151561080b57fe5b9060005260206000200160009054906101000a900473ffffffffffffffffffffffffffffffffffffffff1673ffffffffffffffffffffffffffffffffffffffff166108fc6005600060048581548110151561086257fe5b9060005260206000200160009054906101000a900473ffffffffffffffffffffffffffffffffffffffff1673ffffffffffffffffffffffffffffffffffffffff1673ffffffffffffffffffffffffffffffffffffffff168152602001908152602001600020549081150290604051600060405180830381858888f193505050501580156108f3573d6000803e3d6000fd5b505b808060010191505061076e565b6001600660006101000a81548160ff0219169083151502179055506000600660016101000a81548160ff0219169083151502179055505b50565b600660019054906101000a900460ff16151561095757600080fd5b600360009054906101000a900473ffffffffffffffffffffffffffffffffffffffff1673ffffffffffffffffffffffffffffffffffffffff163373ffffffffffffffffffffffffffffffffffffffff161415156109b357600080fd5b600760a0604051908101604052808581526020018473ffffffffffffffffffffffffffffffffffffffff1681526020018381526020016000151581526020016000815250908060018154018082558091505090600182039060005260206000209060060201600090919290919091506000820151816000015560208201518160010160006101000a81548173ffffffffffffffffffffffffffffffffffffffff021916908373ffffffffffffffffffffffffffffffffffffffff1602179055506040820151816002019080519060200190610a8f929190610fb3565b5060608201518160030160006101000a81548160ff02191690831515021790555060808201518160040155505050505050565b60008060006060610ad1610f6b565b600786815481101515610ae057fe5b906000526020600020906006020160a06040519081016040529081600082015481526020016001820160009054906101000a900473ffffffffffffffffffffffffffffffffffffffff1673ffffffffffffffffffffffffffffffffffffffff1673ffffffffffffffffffffffffffffffffffffffff168152602001600282018054600181600116156101000203166002900480601f016020809104026020016040519081016040528092919081815260200182805460018160011615610100020316600290048015610bf35780601f10610bc857610100808354040283529160200191610bf3565b820191906000526020600020905b815481529060010190602001808311610bd657829003601f168201915b505050505081526020016003820160009054906101000a900460ff16151515158152602001600482015481525050905080600001518160200151826080015183604001518090509450945094509450509193509193565b6000600660019054906101000a900460ff161515610c6757600080fd5b600360009054906101000a900473ffffffffffffffffffffffffffffffffffffffff1673ffffffffffffffffffffffffffffffffffffffff163373ffffffffffffffffffffffffffffffffffffffff1614151515610cc457600080fd5b81610ccd610f6b565b600782815481101515610cdc57fe5b906000526020600020906006020160a06040519081016040529081600082015481526020016001820160009054906101000a900473ffffffffffffffffffffffffffffffffffffffff1673ffffffffffffffffffffffffffffffffffffffff1673ffffffffffffffffffffffffffffffffffffffff168152602001600282018054600181600116156101000203166002900480601f016020809104026020016040519081016040528092919081815260200182805460018160011615610100020316600290048015610def5780601f10610dc457610100808354040283529160200191610def565b820191906000526020600020905b815481529060010190602001808311610dd257829003601f168201915b505050505081526020016003820160009054906101000a900460ff1615151515815260200160048201548152505090508060600151151515610e3057600080fd5b6000600560003373ffffffffffffffffffffffffffffffffffffffff1673ffffffffffffffffffffffffffffffffffffffff16815260200190815260200160002054111515610e7e57600080fd5b600784815481101515610e8d57fe5b906000526020600020906006020192508260050160003373ffffffffffffffffffffffffffffffffffffffff1673ffffffffffffffffffffffffffffffffffffffff16815260200190815260200160002060009054906101000a900460ff16151515610ef857600080fd5b6001836004016000828254019250508190555060018360050160003373ffffffffffffffffffffffffffffffffffffffff1673ffffffffffffffffffffffffffffffffffffffff16815260200190815260200160002060006101000a81548160ff02191690831515021790555050505050565b60a06040519081016040528060008152602001600073ffffffffffffffffffffffffffffffffffffffff16815260200160608152602001600015158152602001600081525090565b828054600181600116156101000203166002900490600052602060002090601f016020900481019282601f10610ff457805160ff1916838001178555611022565b82800160010185558215611022579182015b82811115611021578251825591602001919060010190611006565b5b50905061102f9190611033565b5090565b61105591905b80821115611051576000816000905550600101611039565b5090565b905600a165627a7a72305820d65fd27a794f87fed166605c558e2d0fb052a14cb6b464282e6729157bab56570029",
  "source": "pragma solidity ^0.4.4;\n\ncontract Funding {\n    uint goal;\n    uint amountRaised;\n    uint endtime;\n    \n    address manager;\n    address[] players;\n    mapping(address=>uint) playerSupport;\n    \n    bool end;\n    bool goalReached;\n    \n    function Funding(uint _goal,uint duration) {\n        goal=_goal;\n        endtime=now+duration;\n        manager=msg.sender;\n        end=false;\n        goalReached=false;\n    }\n    \n    modifier onlyPlayer() {\n        require(msg.sender!=manager);\n        _;\n    }\n    \n    modifier onlyManager() {\n        require(msg.sender==manager);\n        _;\n    }\n    \n    modifier beforeEndtime() {\n        require(now<=endtime);\n        _;\n    }\n    \n    modifier afterEndtime() {\n        require(now>endtime);\n        _;\n    }\n    \n    modifier onlyGoalReached() {\n        require(goalReached);\n        _;\n    }\n    \n    modifier notFinish(uint id) {\n        Request memory request=requests[id];\n        require(!request.finish);\n        _;\n    }\n    \n    function support() payable public onlyPlayer beforeEndtime {\n        if(playerSupport[msg.sender]==0) players.push(msg.sender);\n        playerSupport[msg.sender]+=msg.value;\n        amountRaised+=msg.value;\n    }\n    \n    function finalize() public afterEndtime {\n        require(!end);\n        if(amountRaised>=goal) {\n            end=true;\n            goalReached=true;\n        } else {\n            for(uint i=0;i<players.length;i++)\n                if(playerSupport[players[i]]>0) players[i].transfer(playerSupport[players[i]]);\n            end=true;\n            goalReached=false;\n        }\n    }\n    \n    struct Request {\n        uint amount;\n        address to;\n        string intro;\n        bool finish;\n        uint approveNum;\n        mapping(address=>bool) playerApprove;\n    }\n    Request[] requests;\n    \n    function makeRequest(uint _amount,address _to,string _intro) public onlyGoalReached onlyManager {\n        requests.push(Request({\n            amount:_amount,\n            to:_to,\n            intro:_intro,\n            finish:false,\n            approveNum:0\n        }));\n    }\n    \n    function approveRequest(uint id) public onlyGoalReached onlyPlayer notFinish(id) {\n        require(playerSupport[msg.sender]>0);\n        Request storage request=requests[id];\n        require(!request.playerApprove[msg.sender]);\n        request.approveNum+=1;\n        request.playerApprove[msg.sender]=true;\n    }\n    \n    function finalizeRequest(uint id) public onlyGoalReached onlyManager notFinish(id) {\n        Request storage request=requests[id];\n        require(request.approveNum*2>players.length);\n        request.to.transfer(request.amount);\n        request.finish=true;\n    }\n    \n    function getRequest(uint id) view public returns (uint,address,uint,string) {\n        Request memory request=requests[id];\n        return (request.amount,request.to,request.approveNum,request.intro);\n    }\n    \n    function getBalance() view public returns (uint) {\n        return this.balance;\n    }\n}",
  "sourcePath": "/Users/zmx/180907/contracts/Funding.sol",
  "compiler": {
    "name": "solc",
    "version": "0.4.23+commit.124ca40d.Emscripten.clang"
  },
  "schemaVersion": "2.0.0",
  "updatedAt": "2018-09-09T06:46:37.654Z"
}