{
  "contractName": "Funding",
  "abi": [
    {
      "inputs": [
        {
          "name": "_fundingName",
          "type": "string"
        },
        {
          "name": "_goalPrice",
          "type": "uint256"
        },
        {
          "name": "_supportPrice",
          "type": "uint256"
        }
      ],
      "payable": false,
      "stateMutability": "nonpayable",
      "type": "constructor"
    },
    {
      "constant": false,
      "inputs": [],
      "name": "enter",
      "outputs": [],
      "payable": true,
      "stateMutability": "payable",
      "type": "function"
    },
    {
      "constant": false,
      "inputs": [
        {
          "name": "price",
          "type": "uint256"
        },
        {
          "name": "to",
          "type": "address"
        },
        {
          "name": "desc",
          "type": "string"
        }
      ],
      "name": "makeRequest",
      "outputs": [],
      "payable": false,
      "stateMutability": "nonpayable",
      "type": "function"
    },
    {
      "constant": false,
      "inputs": [
        {
          "name": "id",
          "type": "uint256"
        }
      ],
      "name": "approveRequest",
      "outputs": [],
      "payable": false,
      "stateMutability": "nonpayable",
      "type": "function"
    },
    {
      "constant": false,
      "inputs": [
        {
          "name": "id",
          "type": "uint256"
        }
      ],
      "name": "finalizeRequest",
      "outputs": [],
      "payable": false,
      "stateMutability": "nonpayable",
      "type": "function"
    },
    {
      "constant": true,
      "inputs": [],
      "name": "getFunding",
      "outputs": [
        {
          "name": "",
          "type": "string"
        },
        {
          "name": "",
          "type": "uint256"
        },
        {
          "name": "",
          "type": "uint256"
        },
        {
          "name": "",
          "type": "uint256"
        },
        {
          "name": "",
          "type": "address"
        }
      ],
      "payable": false,
      "stateMutability": "view",
      "type": "function"
    }
  ],
  "bytecode": "0x608060405234801561001057600080fd5b50604051610b6a380380610b6a83398101806040528101908080518201929190602001805190602001909291908051906020019092919050505082600090805190602001906100609291906100c4565b50816001819055508060028190555033600460006101000a81548173ffffffffffffffffffffffffffffffffffffffff021916908373ffffffffffffffffffffffffffffffffffffffff1602179055506224ea004201600381905550505050610169565b828054600181600116156101000203166002900490600052602060002090601f016020900481019282601f1061010557805160ff1916838001178555610133565b82800160010185558215610133579182015b82811115610132578251825591602001919060010190610117565b5b5090506101409190610144565b5090565b61016691905b8082111561016257600081600090555060010161014a565b5090565b90565b6109f2806101786000396000f30060806040526004361061006d576000357c0100000000000000000000000000000000000000000000000000000000900463ffffffff168063034410061461007257806312af5f981461009f578063bfb41ea714610177578063d7d1bbdb1461020a578063e97dcb6214610237575b600080fd5b34801561007e57600080fd5b5061009d60048036038101908080359060200190929190505050610241565b005b3480156100ab57600080fd5b506100b46103b0565b60405180806020018681526020018581526020018481526020018373ffffffffffffffffffffffffffffffffffffffff1673ffffffffffffffffffffffffffffffffffffffff168152602001828103825287818151815260200191508051906020019080838360005b8381101561013857808201518184015260208101905061011d565b50505050905090810190601f1680156101655780820380516001836020036101000a031916815260200191505b50965050505050505060405180910390f35b34801561018357600080fd5b5061020860048036038101908080359060200190929190803573ffffffffffffffffffffffffffffffffffffffff169060200190929190803590602001908201803590602001908080601f0160208091040260200160405190810160405280939291908181526020018383808284378201915050505050509192919290505050610493565b005b34801561021657600080fd5b506102356004803603810190808035906020019092919050505061060a565b005b61023f6107ac565b005b6000600460009054906101000a900473ffffffffffffffffffffffffffffffffffffffff1673ffffffffffffffffffffffffffffffffffffffff163373ffffffffffffffffffffffffffffffffffffffff1614151561029f57600080fd5b6007828154811015156102ae57fe5b906000526020600020906006020190508060050160009054906101000a900460ff161515156102dc57600080fd5b60058054905060028260040154021115156102f657600080fd5b80600001543073ffffffffffffffffffffffffffffffffffffffff16311015151561032057600080fd5b8060010160009054906101000a900473ffffffffffffffffffffffffffffffffffffffff1673ffffffffffffffffffffffffffffffffffffffff166108fc82600001549081150290604051600060405180830381858888f1935050505015801561038e573d6000803e3d6000fd5b5060018160050160006101000a81548160ff0219169083151502179055505050565b60606000806000806000600154600254600354600460009054906101000a900473ffffffffffffffffffffffffffffffffffffffff16848054600181600116156101000203166002900480601f01602080910402602001604051908101604052809291908181526020018280546001816001161561010002031660029004801561047b5780601f106104505761010080835404028352916020019161047b565b820191906000526020600020905b81548152906001019060200180831161045e57829003601f168201915b50505050509450945094509450945094509091929394565b61049b6108d9565b600460009054906101000a900473ffffffffffffffffffffffffffffffffffffffff1673ffffffffffffffffffffffffffffffffffffffff163373ffffffffffffffffffffffffffffffffffffffff161415156104f757600080fd5b60a0604051908101604052808581526020018473ffffffffffffffffffffffffffffffffffffffff16815260200183815260200160008152602001600015158152509050600781908060018154018082558091505090600182039060005260206000209060060201600090919290919091506000820151816000015560208201518160010160006101000a81548173ffffffffffffffffffffffffffffffffffffffff021916908373ffffffffffffffffffffffffffffffffffffffff16021790555060408201518160020190805190602001906105d6929190610921565b506060820151816004015560808201518160050160006101000a81548160ff02191690831515021790555050505050505050565b6000600460009054906101000a900473ffffffffffffffffffffffffffffffffffffffff1673ffffffffffffffffffffffffffffffffffffffff163373ffffffffffffffffffffffffffffffffffffffff161415151561066957600080fd5b60078281548110151561067857fe5b90600052602060002090600602019050600660003373ffffffffffffffffffffffffffffffffffffffff1673ffffffffffffffffffffffffffffffffffffffff16815260200190815260200160002060009054906101000a900460ff1615156106e057600080fd5b8060030160003373ffffffffffffffffffffffffffffffffffffffff1673ffffffffffffffffffffffffffffffffffffffff16815260200190815260200160002060009054906101000a900460ff1615151561073b57600080fd5b6001816004016000828254019250508190555060018160030160003373ffffffffffffffffffffffffffffffffffffffff1673ffffffffffffffffffffffffffffffffffffffff16815260200190815260200160002060006101000a81548160ff0219169083151502179055505050565b600460009054906101000a900473ffffffffffffffffffffffffffffffffffffffff1673ffffffffffffffffffffffffffffffffffffffff163373ffffffffffffffffffffffffffffffffffffffff161415151561080957600080fd5b6002543414151561081957600080fd5b60053390806001815401808255809150509060018203906000526020600020016000909192909190916101000a81548173ffffffffffffffffffffffffffffffffffffffff021916908373ffffffffffffffffffffffffffffffffffffffff160217905550506001600660003373ffffffffffffffffffffffffffffffffffffffff1673ffffffffffffffffffffffffffffffffffffffff16815260200190815260200160002060006101000a81548160ff021916908315150217905550565b60a06040519081016040528060008152602001600073ffffffffffffffffffffffffffffffffffffffff16815260200160608152602001600081526020016000151581525090565b828054600181600116156101000203166002900490600052602060002090601f016020900481019282601f1061096257805160ff1916838001178555610990565b82800160010185558215610990579182015b8281111561098f578251825591602001919060010190610974565b5b50905061099d91906109a1565b5090565b6109c391905b808211156109bf5760008160009055506001016109a7565b5090565b905600a165627a7a72305820456c5eb7cf21e635fc884bc99cf148f7ef3865f3c0d96204fc460158f46e45ac0029",
  "source": "pragma solidity ^0.4.4;\n\n\ncontract Funding {\n    string fundingName;\n    uint goalPrice;\n    uint supportPrice;\n    uint endtime;\n    address manager;\n    address[] players;\n    mapping(address=>bool) hasPlayer;\n    \n    struct Request {\n        uint price;\n        address to;\n        string desc;\n        mapping(address=>bool) approved;\n        uint approveNum;\n        bool complete;\n    }\n    Request[] requests;\n    \n    function Funding(string _fundingName,uint _goalPrice,uint _supportPrice) {\n        fundingName=_fundingName;\n        goalPrice=_goalPrice;\n        supportPrice=_supportPrice;\n        manager=msg.sender;\n        endtime=now+4 weeks;\n    }\n    \n    function enter() payable public onlyPlayer {\n        require(msg.value==supportPrice);\n        players.push(msg.sender);\n        hasPlayer[msg.sender]=true;\n    }\n    \n    function makeRequest(uint price,address to,string desc) public onlyManager {\n        Request memory request=Request({\n            price:price,\n            to:to,\n            desc:desc,\n            complete:false,\n            approveNum:0\n        });\n        requests.push(request);\n    } \n    \n    function approveRequest(uint id) public onlyPlayer {\n        Request storage request=requests[id];\n        require(hasPlayer[msg.sender]);\n        require(!request.approved[msg.sender]);\n        request.approveNum+=1;\n        request.approved[msg.sender]=true;\n    }\n    \n    function finalizeRequest(uint id) public onlyManager {\n        Request storage request=requests[id];\n        require(!request.complete);\n        require(request.approveNum*2>players.length);\n        require(this.balance>=request.price);\n        request.to.transfer(request.price);\n        request.complete=true;\n    }\n    \n    modifier onlyManager() {\n        require(msg.sender==manager);\n        _;\n    }\n    \n    modifier onlyPlayer() {\n        require(msg.sender!=manager);\n        _;\n    }\n    \n    function getFunding() view public returns (string,uint,uint,uint,address) {\n        return (fundingName,goalPrice,supportPrice,endtime,manager);\n    }\n}",
  "sourcePath": "/Users/zmx/180907/contracts/Funding.sol",
  "compiler": {
    "name": "solc",
    "version": "0.4.23+commit.124ca40d.Emscripten.clang"
  },
  "schemaVersion": "2.0.0",
  "updatedAt": "2018-09-07T07:58:35.242Z"
}